:020000040800F2
:10000000881E002045010008910C0008BF0A000866
:10001000F10B000813080008DF1A000800000000B8
:10002000000000000000000000000000CD120008E9
:100030008D09000800000000C910000839140008EC
:100040005F0100085F0100085F0100085F01000810
:100050005F0100085F0100085F0100085F01000800
:100060005F0100085F0100085F0100085F010008F0
:100070005F0100085F0100085F0100085F010008E0
:100080005F0100085F0100085F0100085F010008D0
:100090005F0100085F0100085F0100085F010008C0
:1000A0005F0100085F0100085F0100085F010008B0
:1000B0005F0100085F0100085F0100085F010008A0
:1000C0005F0100085F0100085F0100085F01000890
:1000D0005F010008CD160008E91700085F0100085D
:1000E0005F0100085F0100085F0100085F01000870
:1000F0005F0100085F0100085F0100085F01000860
:100100005F0100085F0100085F0100085F0100084F
:100110005F0100085F0100085F0100085F0100083F
:100120005F0100085F0100085F0100085F0100082F
:10013000DFF80CD000F00CFA00480047491F000817
:10014000881E00200648804706480047FEE7FEE775
:10015000FEE7FEE7FEE7FEE7FEE7FEE7FEE7FEE777
:100160006914000831010008D2B201E000F8012B47
:10017000491EFBD270470022F6E710B513460A4627
:1001800004461946FFF7F0FF204610BD034611F85C
:10019000012B00F8012B002AF9D1184670472DE9F0
:1001A000FE4F81EA030404F0004421F00041009472
:1001B0004FF0000B23F0004350EA01045ED052EAF6
:1001C00003045BD0C3F30A54C1F30A552C44A4F2D0
:1001D000F3340194A0FB0254C1F3130141F48011E4
:1001E000C3F3130343F4801301FB024400FB034EEB
:1001F000840A970A44EA815447EA8357A4FB0768B4
:1002000002958D0A05FB07854FEA932C04FB0C54DD
:100210002705029D4FEA065847EA1637B5EB080551
:100220006EEB070C870E920E47EA811742EA8312A3
:10023000A7FB0201B6EB0B0164EB00042B0D43EAB4
:100240000C335E1844EB1C50DA465146E7FB0201C2
:10025000C5F313044FEA0B3343EA14534FEA043255
:10026000019C43EA0603A4F10C040294009CCDE92E
:1002700000B400F01EF903B0BDE8F08F0020014685
:10028000F9E72DE9F04D81EA030404F0004B21F079
:10029000004514464FF0000A23F0004150EA0502E1
:1002A00020D054EA01021DD0C5F30A570246C5F317
:1002B0001303C1F31300C1F30A5640F4801543F44D
:1002C0008013A7EB0608101BD64608F2FD3873EB27
:1002D000050002D308F1010801E092185B41B8F172
:1002E000000F03DA00200146BDE8F08D00204FF436
:1002F0008011064684460EE0171B73EB050705D3F5
:10030000121B63EB050306434CEA010C49084FEA54
:10031000300092185B4150EA0107EDD152EA030028
:1003200012D082EA040083EA0501084305D0101BBD
:10033000AB4106D20122002306E000224FF0004329
:1003400002E06FF0010253101AEB06004CEB08516B
:1003500010EB0A0041EB0B01BDE8F04D00F09AB83C
:1003600096230022114600F067B800F0004220F00A
:100370000040C10DC0F3160040F400007F2901DAEF
:1003800000207047962903DCC1F19601C84001E0C6
:1003900096398840002AF4D04042704700F000426D
:1003A00030F000400AD0C10D01F56071C0F31600B5
:1003B00042EA0151C208400711437047002001463C
:1003C000704701F0004330B421F0004150EA0102CF
:1003D00006D00A0DA2F56072C1F31301002A02DCF7
:1003E00030BC00207047440F44EAC104C100E0184B
:1003F00030BC00EBC25000F016B830B50B460146D9
:1004000000202022012409E021FA02F59D4205D3B3
:1004100003FA02F5491B04FA02F52844151EA2F15D
:100420000102F1DC30BD0029A8BF7047401C490023
:1004300008BF20F00100704710B4B0FA80FC00FA49
:100440000CF050EA010404BF10BC704749B1CCF174
:10045000200421FA04F411FA0CF118BF0121214300
:100460000843A3EB0C01CB1D4FEA00614FEA1020BB
:1004700042BF002010BC704700EBC350104400295D
:10048000A4BF10BC7047401C490008BF20F0010009
:1004900010BC704710B5141E73F1000408DA401C3C
:1004A00041F1000192185B411A4301D120F0010093
:1004B00010BD2DE9F04D92469B4611B1B1FA81F283
:1004C00002E0B0FA80F22032904600F053F8044681
:1004D0000F4640EA0A0041EA0B0153465A460843D8
:1004E00013D0114653EA010019D0C8F1400250461A
:1004F00000F04FF805460E4650465946424600F079
:1005000039F8084305D0012004E020463946BDE80B
:10051000F08D0020054346EAE0762C4337430A98E5
:100520006305E40AA0EB08000022FD0A44EA4754F0
:100530000A3002D500200146E9E70105101969419A
:10054000DDE9084500196941BDE8F04DA2E700006A
:10055000064C074D06E0E06840F0010394E8070010
:1005600098471034AC42F6D3FFF7E6FD5030000850
:1005700070300008202A04DB203A00FA02F1002043
:1005800070479140C2F1200320FA03F319439040D1
:100590007047202A04DB203A21FA02F0002170473C
:1005A00021FA02F3D040C2F12002914008431946DB
:1005B000704770B58D1810F8014B14F0030201D18B
:1005C00010F8012B231106D110F8013B03E010F8BD
:1005D000016B01F8016B521EF9D1ABB110F8012B80
:1005E00004F00C048A1A0C2C03D0A2EB84129B1C7E
:1005F00008E010F8014BA2EB0422F8E712F8014BD7
:1006000001F8014B5B1EF9D5A942D4D3002070BD7F
:100610002DE9F14F82B0029800F034F80190FFF715
:10062000BDFE80464FF06632084BFFF7B8FD064628
:100630000022074BFFF725FE04460022054BFFF77B
:10064000AEFD8246FFF7BDFEBDE8FE8F66660A403E
:1006500000FEAF400000594021B1826842F0010223
:10066000826003E0826822F001028260704721B15B
:10067000826842F48072826003E0826822F48072B1
:10068000826070472DE9F04105460026002407E00E
:10069000084800EB840030F815000644601CC4B222
:1006A0001E2CF5DB1E20B6FBF0F73846FFF758FE90
:1006B000BDE8F0810E1A0020014600208A6802F091
:1006C00004020AB1012000E000207047014600202A
:1006D0008A6802F008020AB1012000E00020704799
:1006E00030B502460020002350680F4C20400D79A1
:1006F0000C6844EA05242043506090680B4C20406D
:10070000D1E902542C434D7944EA450420439060DA
:10071000D06A20F470000C7C641EE4B2234340EAEB
:100720000350D06230BD0000FFFEF0FFFDF7F1FF87
:10073000F0B504460D4600200021092D11DDE068CA
:10074000A5F10A0606EB4607072606FA07F18843D5
:10075000A5F10A0606EB460603FA06F10843E06037
:100760000CE0206905EB4507072606FA07F18843E8
:1007700005EB450603FA06F108432061072A0FDA64
:10078000606B561E06EB86071F2606FA07F18843A4
:10079000561E06EB860605FA06F10843606322E062
:1007A0000D2A0FDA206BD61F06EB86071F2606FAE6
:1007B00007F18843D61F06EB860605FA06F10843C3
:1007C000206310E0E06AA2F10D0606EB86071F2603
:1007D00006FA07F18843A2F10D0606EB860605FA34
:1007E00006F10843E062F0BD816841F008018160D4
:1007F000704721B1826842F4A002826003E08268FF
:1008000022F4A00282607047816841F00401816097
:10081000704700BFFEE77CB505460E4600200090FD
:10082000019000F03BFC00F02BF838BB002405E001
:1008300000F0F2FC0DF80400601CC4B2052CF7DBDC
:100840009DF800009DF8011008449DF8021008442E
:100850009DF8031008449DF80410884206D19DF8C5
:10086000000030709DF80200287007E09DF800003D
:1008700030709DF802002870FF207CBD0020FCE74E
:1008800010B5002400F0D4FB04E0601CC4B20120C9
:1008900000F01DFD4FF480710F4800F003F90128AE
:1008A00001D1652CF1DB642C01DDFF2010BD00249B
:1008B00004E0601CC4B2012000F009FD4FF4807117
:1008C000054800F0EFF808B9652CF2DB642C01DD77
:1008D000FF20EBE70020E9E70008014021B10268B2
:1008E00042F00102026004E002684FF6FE731A4013
:1008F0000260704700B58BB00121084600F0F2FBA2
:100900001048009010480190002002903C20039075
:100910000020049080200590400006908000079001
:10092000202008904FF44050099000200A9069461A
:10093000064800F00DF801210448FFF7CFFF0BB087
:1009400000BD00004C2401400E1A002008000240A7
:1009500010B50022026847F6F0739A430C6A8B6860
:1009600023430C6923434C6923438C692343CC699B
:1009700023434C6A23438C6A23431A430260CB68A7
:1009800043600B6883604B68C36010BD70472DE9FE
:10099000F041024600250026002000230024002705
:1009A00091F803C00CF00F0591F803C00CF0100C87
:1009B000BCF1000F03D091F802C04CEA050591F894
:1009C00000C0BCF1000F31D0146800202BE04FF0C4
:1009D000010C0CFA00F3B1F800C00CEA03069E42C9
:1009E00020D183004FF00F0C0CFA03F7BC4305FA3B
:1009F00003FC4CEA040491F803C0BCF1280F06D1B3
:100A00004FF0010C0CFA00FCC2F814C00AE091F897
:100A100003C0BCF1480F05D14FF0010C0CFA00FCEB
:100A2000C2F810C0401C0828D1D31460B1F800C02F
:100A3000BCF1FF0F34DD546800202EE000F1080CFB
:100A40004FF0010808FA0CF3B1F800C00CEA0306F5
:100A50009E4221D183004FF00F0C0CFA03F7BC43E8
:100A600005FA03FC4CEA040491F803C0BCF1280F1A
:100A700005D100F1080C08FA0CF8C2F8148091F8BE
:100A800003C0BCF1480F07D100F1080C4FF001087A
:100A900008FA0CF8C2F81080401C0828CED3546025
:100AA000BDE8F0810246002093680B400BB10120A5
:100AB00000E000207047416170470161704700BF4E
:100AC000FEE7000010B54FF480510948FFF7F5FF2D
:100AD0004FF480610648FFF7F0FF4FF4806104484F
:100AE000FFF7E9FF4FF480510148FFF7E4FF10BD25
:100AF0000010014010B54FF480510748FFF7DDFFAB
:100B00004FF480610448FFF7D6FF4FF4806102483C
:100B1000FFF7D3FF10BD00000010014010B54FF4E7
:100B200080510448FFF7C9FF4FF480510148FFF797
:100B3000C2FF10BD0010014000B587B001214FF485
:100B4000057000F0EFFA4FF4004000F0BFFA00200B
:100B50008DF81B000120ADF8180006A92248FFF708
:100B600016FF01208DF80900002004904FF460204A
:100B700003900020019002208DF8140001208DF8D0
:100B8000080001A91948FFF7ABFD01211748FFF73D
:100B900063FD1648FFF728FE00BF1448FFF796FDD7
:100BA0000028FAD11148FFF72FFE00BF0F48FFF7CA
:100BB00083FD0028FAD10723012200210B48FFF70B
:100BC000B7FD072302220A210848FFF7B1FD0121E2
:100BD0000648FFF74CFDFFF78DFE01210348FFF7A4
:100BE00008FE07B000BD00000010014000240140D5
:100BF00000BFFEE700B589B00121480300F092FA7A
:100C00000121102000F08EFA4020ADF820001820BD
:100C10008DF8230003208DF8220008A91A48FFF759
:100C2000B6FEC720ADF8180041F61F40ADF814001D
:100C30000020ADF81A00ADF816008DF81C0005A9CB
:100C4000124800F0B5FC6020ADF804000120ADF8BA
:100C500006000020ADF80A00ADF80C004FF48070DB
:100C6000ADF8100001A9094800F04AFC0821074826
:100C700000F092FC0121054800F026FC0121034808
:100C800000F02EFC09B000BD00100140003401400E
:100C90007047000070B5002100230F22C47804B310
:100CA000154C246804F4E064C4F5E064210AC1F141
:100CB0000403CA40447804FA03F1847814402143C1
:100CC00009010E4C0678A155047804F01F05012493
:100CD000AC4005786D11AD0005F1E025C5F8004187
:100CE00009E0047804F01F050124AC40044D0678A7
:100CF000761145F8264070BD0CED00E000E400E000
:100D000080E100E002490143024A1160704700009F
:100D10000000FA050CED00E070B5002418E004F1C5
:100D2000B000002100F077F90021084600F073F9C7
:100D30000021102000F06FF9002505E001210020BE
:100D400000F069F9681CC5B2802DF7DB601CC4B2E5
:100D5000082CE4DB70BD000008B50121102000F074
:100D6000E1F94FF4A050ADF8000010208DF8030019
:100D700003208DF8020069463C48FFF708FE4FF457
:100D8000A0513A48FFF799FE4FF4487001F0A4F8DB
:100D90000021AE2000F03FF90021084600F03BF9A9
:100DA0000021102000F037F90021402000F033F935
:100DB0000021B02000F02FF90021812000F02BF954
:100DC0000021FF2000F027F90021A12000F023F9E5
:100DD0000021A62000F01FF90021A82000F01BF937
:100DE00000213F2000F017F90021C82000F013F97E
:100DF0000021D32000F00FF90021084600F00BF984
:100E00000021D52000F007F90021802000F003F92F
:100E10000021D82000F0FFF80021052000F0FBF8A9
:100E20000021D92000F0F7F80021F12000F0F3F8BC
:100E30000021DA2000F0EFF80021122000F0EBF89A
:100E40000021DB2000F0E7F80021302000F0E3F87B
:100E500000218D2000F0DFF80021142000F0DBF8E5
:100E60000021AF2000F0D7F808BD000000100140BD
:100E700070B504460D4605F1B000002100F0CBF836
:100E8000102141EA1410002100F0C5F804F00F0011
:100E9000002100F0C0F870BD2DE9F04180460E46FB
:100EA0001546002731464046FFF7E2FF00240AE0DE
:100EB000124A02EB8511085D012100F0ACF8781CA4
:100EC000C7B2601CC4B2102CF2DB701CC1B2404629
:100ED000FFF7CEFF00240CE06900491C074A02EB33
:100EE0004111085D012100F096F8781CC7B2601C22
:100EF000C4B2102CF0DBBDE8F08100002404002017
:100F00002DE9F05F05460E46174698460024A9468F
:100F1000B246BB4600BF0AE004EB0B01CAB209EBC4
:100F20000411C8B25146FFF7B7FF601CC4B2444574
:100F3000F2DBBDE8F09F00002DE9F04707460E46C2
:100F40009046994600250024A8F12000C5B27F2FC5
:100F500002DD0027B01CC6B2B9F1100F24D1314612
:100F60003846FFF785FF002408E004EB0511194A15
:100F7000505C012100F04FF8601CC4B2082CF4DB77
:100F8000701CC1B23846FFF773FF002409E004EB80
:100F9000051108310F4A505C012100F03CF8601C3B
:100FA000C4B2082CF3DB12E031463846FFF760FF8D
:100FB00000240AE005EB4501074A02EB4101085D08
:100FC000012100F028F8601CC4B2062CF2DBBDE859
:100FD000F0870000602A0008382800082DE9F04159
:100FE00004460F461546984600260FE0AA5D434684
:100FF00039462046FFF7A0FF04F10800C4B2782C60
:1010000002DD0024B81CC7B2701CC6B2A85D00285F
:10101000ECD1BDE8F08170B504460D461DB1E0B2DB
:1010200000F03EFE02E0E0B200F024FE70BD0000E1
:1010300008B504208DF803008001ADF80000694672
:101040000148FFF7A4FC08BD0008014008B50121D4
:10105000042000F067F810208DF803000001ADF8BF
:10106000000003208DF8020069460248FFF78FFC5C
:1010700008BD00000008014008B510208DF80300ED
:101080000001ADF8000003208DF802006946024817
:10109000FFF77DFC08BD00000008014010B5FFF718
:1010A000EBFF4FF480710748FFF705FD142000F0B7
:1010B000C4F94FF480710348FFF7FFFC1E2000F0D5
:1010C00006F910BD000801407047000001460020ED
:1010D000034A506820F440400843506070470000C5
:1010E0000010024029B1064A52690243044B5A617A
:1010F00004E0034A52698243014B5A617047000081
:101100000010024029B1064AD2690243044BDA6159
:1011100004E0034AD2698243014BDA617047000060
:101120000010024029B1064A92690243044B9A61B9
:1011300004E0034A92698243014B9A6170470000C0
:101140000010024030B500210022002400232D4D64
:101150006D6805F00C0121B1042905D0082923D1BF
:1011600005E0294D056022E0274D05601FE0254D73
:101170006D6805F47012234D6D6805F48034022506
:1011800005EB92421CB9214D554305600BE01D4D06
:101190006D6805F400351DB11C4D5543056002E036
:1011A000194D5543056002E0174D056000BF00BFB3
:1011B000144D6D6805F0F0010909154D6B5C05686B
:1011C000DD4045600F4D6D6805F4E061090A104D82
:1011D0006B5C4568DD4085600A4D6D6805F46051C3
:1011E000C90A0B4D6B5C4568DD40C560054D6D68F7
:1011F00005F44041890B074D6B5CC568B5FBF3F501
:10120000056130BD0010024000127A0000093D0067
:10121000381900204819002070B5002506E0600646
:10122000040E00F007F80443681CC5B2082DF6DB75
:10123000204670BD10B5002404E0601CC4B201203B
:1012400000F045F84FF480711148FFF72BFC01289E
:1012500001D1652CF1DB002404E0601CC4B2012044
:1012600000F035F84FF480710948FFF71BFC08B90E
:10127000652CF2DB282000F02AF84FF48071044836
:10128000FFF710FC012800D110BD0020FCE7000092
:101290000008014070B504460D468021284600F044
:1012A00029FB0FE014F8011B284600F014FC00BFD6
:1012B0008021284600F042FB0028F9D080212846F2
:1012C00000F018FB20780028ECD170BD70474FF07B
:1012D000E021096921F005014FF0E022116111467A
:1012E000096921F48031116100EBC00151610021D5
:1012F00091611146096941F00101116100BF4FF090
:10130000E021096901F480310029F8D04FF0E02193
:10131000096921F005014FF0E022116111460969C8
:1013200021F480311161704710B500F001F810BD53
:101330000CB50020019000903348006840F48030E4
:101340003149086000BF3048006800F40030009068
:101350000198401C0190009818B90198B0F5A06F51
:10136000F1D12948006800F4003010B1012000904C
:1013700001E0002000900098012843D12348006834
:1013800040F01000214908600846006820F0030082
:1013900008600846006840F0020008601A4840688B
:1013A000194948600846406848600846406840F46B
:1013B000806048600846406820F47C104860084619
:1013C000406840F4E81048600846006840F08070CB
:1013D000086000BF0C48006800F000700028F9D0D9
:1013E0000948406820F00300074948600846406803
:1013F00040F00200486000BF0348406800F00C0065
:101400000828F9D10CBD0000001002400020024065
:10141000042808D14FF0E021096941F004014FF0A0
:10142000E022116107E04FF0E021096921F0040199
:101430004FF0E02211617047704700B5034604E0A9
:101440004FF47A70FFF743FF5B1E002BF8D100BD0D
:1014500000B5034603E00348FFF739FF5B1E002B8E
:10146000F9D100BDA086010010B51348006840F016
:1014700001001149086008464068104908400E49BB
:101480004860084600680E4908400B490860084655
:10149000006820F4802008600846406820F4FE00C0
:1014A00048604FF41F008860FFF73EFF4FF0006078
:1014B0000449086010BD0000001002400000FFF861
:1014C000FFFFF6FE08ED00E021B1028842F00102C4
:1014D000028004E002884FF6FE731A4002807047D3
:1014E00031B1B0F8442042F40042A0F8442005E0B5
:1014F000B0F84420C2F30E02A0F844207047000068
:1015000070B5002400220023058C4FF6FE7635408E
:101510000584028C8388048B4FF68F752C40B51E92
:101520002C400D882C43751E2A400D892A434D8876
:101530002A43144DA8420BD0134DA84208D0134D96
:10154000A84205D0124DA84202D0124DA84213D194
:101550004FF6F7752A404D892A434FF6FB752A400E
:101560008D882A434FF6FF652B404FF6FF552B40E1
:101570008D892B43CD892B4383800483CD88858639
:10158000028470BD002C0140003401400040014045
:1015900000440140004801400A460021018B4FF6FB
:1015A000F77319401143018370478186704700002B
:1015B000002202881D4B98420ED01D4B98420BD042
:1015C000B0F1804F08D01B4B984205D01A4B98427F
:1015D00002D01A4B984204D14FF68F731A404B88B1
:1015E0001A43174B984207D0164B984204D04FF637
:1015F000FF431A40CB881A4302808B8883850B886F
:1016000003850A4B98420BD0094B984208D00E4BE9
:10161000984205D00D4B984202D00D4B984201D113
:101620000B7A03860123838270470000002C01405F
:10163000003401400004004000080040000C00405D
:1016400000100040001400400040014000440140F0
:101650000048014008B501210420FFF763FD182070
:101660008DF803004FF40070ADF8000003208DF8F2
:10167000020069460648FFF78AF904208DF8030046
:101680000002ADF8000069460148FFF780F908BD87
:10169000000801401FB501218803FFF743FD4FF407
:1016A000E13000900020ADF80C000C20ADF80A00ED
:1016B0000020ADF80600ADF80800ADF8040069465A
:1016C000014800F097F91FBD0038014010B540F205
:1016D0002551094800F03FF960B1074800F0F6F9DC
:1016E00004462146044800F0F6F940F2255102482C
:1016F00000F009F910BD00000038014008B54FF4B2
:10170000A060FFF7FFFA25208DF8000001208DF87A
:10171000030000208DF801008DF802006846FFF7F5
:10172000B9FA012240F22551034800F03EF90121A7
:10173000014800F0F7F808BD0038014008B5012164
:101740000420FFF7EFFC18208DF803000420ADF80B
:10175000000003208DF8020069460748FFF717F9DB
:1017600004208DF803000820ADF800006946024807
:10177000FFF70DF908BD00000008014000B585B075
:1017800001214804FFF7BEFC4FF4E1300190002036
:10179000ADF810000C20ADF80E000020ADF80C00E4
:1017A000ADF80A00ADF8080001A90E4800F022F9D2
:1017B000012240F225510B4800F0F7F826208DF861
:1017C000000000208DF801008DF8020001208DF846
:1017D00003006846FFF75EFA0121024800F0A2F814
:1017E00005B000BD0044004070B540F225513948B5
:1017F00000F0B1F800286BD0364800F067F9C4B2A9
:101800003548007803281BD1344801780078401C03
:10181000324A1070324844543248007801280FD1BF
:101820000A2C0AD102202F4908702D492E48FEF7B4
:10183000ADFC01202D49087002E000202949087004
:1018400028480078022803D02448007813280ADDAD
:10185000002021490870234908702049087014218C
:101860001F48FEF788FC0D2C02D101201D4908708D
:1018700019480078022808D1442C03D103201649C6
:10188000087002E00020144908701348007801280D
:1018900008D1522C03D102200F49087002E0002029
:1018A0000D4908704F2C05D10B48007810B9012064
:1018B00009490870074800F009F9054629460C480F
:1018C00000F009F940F22551024800F01CF800BF71
:1018D00070BD0000004400401C0400201F040020D4
:1018E000E61900201D040020FA1900201E04002023
:1018F0000038014001F40072B2F5007F00D100BF52
:10190000CA430280704710B50022002340F66A14D3
:10191000A14200D100BF0A1201249440A3B2DC43CB
:10192000048010BD21B1828942F40052828104E01A
:1019300082894DF6FF731A4082817047024600206B
:10194000B1F5007F00D100BF13880B400BB101201F
:1019500000E00020704770B50246002400230025F7
:10196000002040F66A16B14200D100BFC1F3421513
:1019700001F01F03012606FA03F3012D02D1968917
:10198000334006E0022D02D1168A334001E0968AE8
:1019900033400C12012606FA04F41688344013B1C1
:1019A0000CB1012000E0002070BDF0B5034600241A
:1019B00000260025002040F66A17B94200D100BF7A
:1019C0001846C1F3421401F01F06012707FA06F575
:1019D000012C01D10C3004E0022C01D1103000E0C8
:1019E00014301AB107682F43076002E00768AF435D
:1019F0000760F0BD2DE9F04786B005460E4600248D
:101A0000A24600BFA1460027B08900B100BF2F4603
:101A10002C8A4CF6FF700440F08804432C82AC8979
:101A20004EF6F3100440B0883189084371890843A9
:101A30000443AC81AC8A4FF6FF400440B0890443B4
:101A4000AC8201A8FFF77EFB1F48874202D1DDF878
:101A500010A001E0DDF80CA0A88900F4004040B11E
:101A60000AEBCA0000EB0A1031684900B0FBF1F83C
:101A700007E00AEBCA0000EB0A1031688900B0FBEE
:101A8000F1F86420B8FBF0F004012009642101FBA7
:101A90001089A88900F4004040B1322000EBC90051
:101AA000B0FBF1F000F00700044308E0322000EB47
:101AB00009106421B0FBF1F000F00F0004432C8109
:101AC00006B0BDE8F0870000003801400146888874
:101AD000C0F308007047C1F308028280704700BF5E
:101AE000FEE7000010B5FFF717F9052318220121C2
:101AF0001620FFF705FA214921A0FFF7CBFB0A20AA
:101B0000FFF7A6FC1D4920A0FFF7C4FB0A20FFF742
:101B10009FFC1A491FA0FFF7BDFB0520FFF798FCAB
:101B2000164920A0FFF7B6FB3C20FFF791FC1349B4
:101B300025A0FFF7AFFB0A20FFF78AFC0F4925A07D
:101B4000FFF7A8FB1420FFF783FC0C4925A0FFF743
:101B5000A1FB1E20FFF77CFC084928A0FFF79AFB99
:101B60000A20FFF775FC284928A0FFF793FB0A20FD
:101B7000FFF76EFCFFF7D0F810BD000000440040F6
:101B800044454C0D0A00000041542B5253540D0A99
:101B90000000000041542B43574D4F44453D330D49
:101BA0000A00000041542B43575341503D224553F6
:101BB0005038323636222C223132333435363738EB
:101BC000222C312C330D0A0041542B43574C4946EB
:101BD0000D0A000041542B4349504D55583D310DDD
:101BE0000A00000041542B43495053455256455278
:101BF0003D312C383038300D0A00000041542B4361
:101C0000494653520D0A00000038014046494E49EA
:101C100053480D0A000000002DE9F04105462C460E
:101C20004FF480511248FEF746FF00261CE027467D
:101C300007F08007802F04D1F9000D48FEF73DFF23
:101C400004E04FF480610A48FEF735FF6006040E99
:101C50004FF480510648FEF730FF4FF4805104489E
:101C6000FEF729FF701CC6B2082EE0DBBDE8F0814C
:101C70000010014010B50446FEF724FF7820FFF75E
:101C8000CBFFFEF74BFF0020FFF7C6FFFEF746FF36
:101C90002046FFF7C1FFFEF741FFFEF72BFF10BD07
:101CA00010B50446FEF70EFF7820FFF7B5FFFEF7EC
:101CB00035FF4020FFF7B0FFFEF730FF2046FFF76B
:101CC000ABFFFEF72BFFFEF715FF10BD0FB4054B62
:101CD00010B503A9044A029800F02CF810BC5DF876
:101CE00014FB0000251F00084C1900200FB4084BFE
:101CF00010B504A902AA039800F01CF8044602A932
:101D0000002000F0C1F8204610BC5DF814FB000074
:101D1000891E000802E008C8121F08C1002AFAD173
:101D200070477047002001E001C1121F002AFBD15B
:101D3000704700002DE9FF4F89B09B4604460025FF
:101D400006E025280BD05A460B999047641C6D1C61
:101D500020780028F5D10DB02846BDE8F08F002787
:101D6000B8460122474900E0074314F8013F203BF1
:101D700002FA03F00842F7D120782E2819D114F87E
:101D8000010F47F004072A280ED06FF02F022078A9
:101D9000A0F1300109290CD808EB880102EB4101C0
:101DA00000EB0108641CF2E70A98641C50F8048BED
:101DB0000A9020780028CED0642808D0692806D060
:101DC00075281ED05A460B9990476D1C58E00A9909
:101DD0004FF00A0901C90A91002802DA40422D2178
:101DE00002E0390504D52B218DF82010012103E0F4
:101DF000F90704D02021F7E78A4608AE0DE000215C
:101E0000FAE70A994FF00A0901C90A91F7E749462A
:101E1000FEF7F3FA303106F8011D0028F7D1ADEBDB
:101E2000060000F12009780701D44FF00108C845E9
:101E300002DDA8EB090000E000208046002706E054
:101E400008A85A46C05D0B9990476D1C7F1C5745EA
:101E5000F6DB04E030205A460B9990476D1CB8F130
:101E60000001A8F10108F5DC05E016F8010B5A465F
:101E70000B9990476D1CB9F10001A9F10109F4DC3F
:101E8000641C65E7092801000A68531C0B60107088
:101E90007047000010B56FF00400FFF7B9FA0A4868
:101EA00000680A49B0FBF1F009490870084600785B
:101EB00000EB4001C1EBC0104FF6FF7101EAC0001A
:101EC0000449088010BD00002419002000127A0087
:101ED00020040020220400200146114A12884A43AF
:101EE0004FF0E0235A6100229A611A46126942F0CB
:101EF00001021A6100BF4FF0E022106900F00102F8
:101F00001AB100F48032002AF5D04FF0E0221269B5
:101F100022F001024FF0E0231A6100229A6170471B
:101F20002204002070B504460D46A1B20548FFF713
:101F3000D2FD00BF40210348FFF700FD0028F9D083
:101F4000204670BD00380140FEF7E6FEFFF7A2FF15
:101F5000FEF702FFFFF77EFBFFF79CFBFFF7CEFBD0
:101F6000FFF7ECFBFFF70AFCFFF7BCFDFEF7E4FD13
:101F7000FFF76CF8FEF73EFEFDE30120FEF748FB9D
:101F80000646FEF7F2F90446FE48007800EB8005AD
:101F90000920FD490870FD49FD48FEF73CFCFC485E
:101FA0000278FCA1FC48FFF7A1FEF8480278F9A1ED
:101FB000FA48FFF79BFEFA2C05DDB4F5A57F02DC9D
:101FC0000120F7490870A02C04DDFA2C02DC022065
:101FD000F3490870462C04DDA02C02DC0320F049F4
:101FE0000870002C04DB462C02DC0420EC4908704D
:101FF000EC480078032834D1EB480078022830D12F
:10200000EA480068A8420DDCE8480068401CE7493F
:102010000860084600682D1A4FF47A70FFF75CFFDD
:10202000FEF77AFEEDB90920DF4908700020D54996
:102030000870DE490860DE48007890B9DDA0FFF73F
:1020400045FE1121DE48FFF7B0FA3220FFF700FA13
:102050000F21DB48FFF7A9FAD5480078401CD44986
:102060000870D0480078032835D1CF48007801287F
:1020700031D1CE480068A8420DDCCC480068401C35
:10208000CA490860084600682D1A4FF47A70FFF7B5
:1020900023FFFEF741FEF5B90920C349087000206F
:1020A000B8490870C1490860C1480078012812D1B8
:1020B000C4A0FFF70BFE0D21C148FFF776FA3220CE
:1020C000FFF7C6F90F21BE48FFF76FFAB84800784E
:1020D000401EB74908702A46AEA1BD48FFF706FE6C
:1020E000B0480078022861D1BA480078012805D1AB
:1020F000B9480078012801D1B8490870B54800787E
:10210000012805D1B4480078022801D1B3490870EC
:10211000B0480078012805D1AF480078032801D1E4
:10212000AE490870AB480078012805D1AA4800786C
:10213000042801D1A9490870A6480078022805D1D1
:10214000A5480078012801D1A5490870A148007868
:10215000022805D1A0480078022801D1A0490870C2
:102160009C480078022805D19B480078032801D1BB
:102170009B49087097480078022805D19648007856
:10218000042801D196490870944800788449097858
:10219000884202D101209349087091480078804913
:1021A0000978884202D102208E4908708D48007853
:1021B000012818D17E48007890B98BA0FFF786FDE2
:1021C00011217F48FFF7F1F93220FFF741F90F2184
:1021D0007B48FFF7EAF976480078401C744908709C
:1021E0000920804908707F480078022819D170487A
:1021F0000078012812D17FA0FFF768FD0D217048FB
:10220000FFF7D3F93220FFF723F90F216C48FFF7CE
:10221000CCF967480078401E65490870092071496B
:1022200008707748007808B9FEF776FD74480078A2
:1022300002282ED104230D2200211C20FEF760FE6F
:102240000323112219461020FEF75AFE03231422FD
:1022500005211020FEF754FE172203215120FEF71E
:102260001BFE102367A203215B20FEF7B7FE10239D
:1022700065A205215620FEF7B1FE1023464A032130
:102280004020FEF7ABFE1023444A05214020FEF714
:10229000A5FE5B480078012817D1082300221146CB
:1022A0001046FEF72DFE02230B2203212420FEF709
:1022B00027FE102355A203214620FEF78FFE06239A
:1022C000492219461220FEF71BFE4D4800780328CC
:1022D00051D10523282219460A20FEF711FE0323B7
:1022E000252201211020FEF70BFE2E480078012840
:1022F00005D102232D2205215520FEF701FE294894
:102300000078022805D102232F2205215520FEF74F
:10231000F7FD24480078032805D102233122052146
:102320005520FEF7EDFD1E480078012805D1022357
:102330001D2201214020FEF7E3FD19480078022804
:1023400005D102231F2201214020FEF7D9FD1448A8
:102350000078032805D10223212201214020FEF725
:10236000CFFD0F480078042805D102232322012144
:102370004020FEF7C5FD22480078042872D10623CC
:10238000312245E00504002004040020010400205F
:1023900000040020256400008C190020AA190020E8
:1023A0000D0400200304002007040020180400206E
:1023B0000B04002064696E677368696F6E0A000021
:1023C0000034014064696E677368696F66660A006D
:1023D000C81900200C040020080400200904002073
:1023E0000A040020060400207A69646F6E676F6E2D
:1023F0000A0000007A69646F6E676F66660A000003
:10240000020400204300000025000000313936009E
:1024100001211020FEF774FD1023EDA205213020CC
:10242000FEF7DCFD1023EB4A05211820FEF7D6FD50
:102430000123412205213C20FEF762FDE648007899
:10244000012805D102233F2205214C20FEF758FD2B
:10245000E1480078022805D102233D2205214C20C5
:10246000FEF74EFDDD48007805287DD10623372292
:1024700000211020FEF744FD02233D2203214420C9
:10248000FEF73EFD02233F2206214420FEF738FDE1
:10249000D3480078012809D1D2480078012805D115
:1024A00002231D2203211820FEF72AFDCC480078C4
:1024B000022809D1CB480078012805D102231F2228
:1024C00003211820FEF71CFDC5480078032809D118
:1024D000C4480078012805D10223212203211820B5
:1024E000FEF70EFDBE480078042809D1BD480078EB
:1024F000012805D10223232203211820FEF700FD25
:10250000B9480078012809D1B6480078022805D1D9
:1025100002231D2206211820FEF7F2FCB2480078A3
:10252000022809D1AF480078022805D102231F22D2
:1025300006211820FEF7E4FCAB480078032809D1F7
:10254000A8480078022805D102232122062118205C
:10255000FEF7D6FCA448007804280BD1A1480078E7
:10256000022807D1022300E004E0232206211820DC
:10257000FEF7C6FC9D48007800287DD09C48C078B6
:10258000322804D1FEF7C8FB02209449087098480D
:10259000C078332804D1FEF7BFFB00208F490870B4
:1025A0009348C078342819D1FEF7B6FB03208B4935
:1025B00008708F480079342802D101208D490870B5
:1025C0008B480079352802D102208A490870884852
:1025D0000079362802D10320864908708448C078E3
:1025E000352802D10020844908708148C0783628F7
:1025F00002D10120804908707D48C078372804D175
:10260000FEF78AFB0420754908707948007A322861
:1026100004D1FEF781FB0520704908707448007AE8
:10262000332804D1FEF778FB06206C4908706B480C
:102630000078042819D16E48C078382806D1FEF7F2
:102640006BFB6E480078401C6C4908706848C07885
:1026500039280AD169480078002806DDFEF75CFBBE
:1026600066480078401E654908705C480078042878
:1026700010D15F48007A00E066E031280AD1564860
:102680000078401C5449087008460078022801DD93
:10269000012008705148007805280DD15448C078B1
:1026A000382802D101204F4908705148C078392894
:1026B00002D102204B4908704848007805280ED105
:1026C0004B48007A31280AD14D480078401C4C49CB
:1026D000087008460078042801DD012008703F4892
:1026E0000078062829D105234F2200211C20FEF75F
:1026F00007FC0223422203210020FEF701FC1023E5
:1027000040A203212020FEF769FC0223442203217A
:102710002820FEF7F5FB10233AA203214820FEF7FC
:102720005DFC0323462219465020FEF7E9FB1023E7
:1027300035A206211820FEF751FC14212C48FDF784
:102740001AFD0020294908702A48007801283BD149
:1027500029480078D0B92F480078A0B92EA0FFF7FB
:10276000B5FA11212F48FEF720FF3220FEF770FE48
:102770000F212C4800E028E0FEF717FF25480078DD
:10278000401C2449087009201B4908701A48007829
:10279000012819D11F480078012812D122A0FFF783
:1027A00095FA0D211F48FEF700FF3220FEF750FE7C
:1027B0000F211C48FEF7F9FE16480078401E154907
:1027C000087009200C49087000BFFFF7D6BB000055
:1027D00073000000C8190020070400200204002034
:1027E000090400200C0400200A0400201E0400201C
:1027F000FA1900200304002004040020050400202E
:102800000804002020200000323032312F31322FD6
:10281000313200000B04002073686F75646F6E67BF
:102820006F6E0A000034014073686F75646F6E67E5
:102830006F66660A00000000000000000000000053
:10284000002F000000000700070000147F147F1411
:1028500000242A7F2A120062640813230036495597
:10286000225000000503000000001C22410000006F
:1028700041221C000014083E08140008083E080805
:10288000000000A060000008080808080000606060
:102890000000002010080402003E5149453E00009F
:1028A000427F4000004261514946002141454B3181
:1028B000001814127F10002745454539003C4A494D
:1028C00049300001710905030036494949360006BF
:1028D0004949291E00003636000000005636000027
:1028E00000081422410000141414141400004122A2
:1028F000140800020151090600324959513E007C7A
:102900001211127C007F49494936003E4141412263
:10291000007F4141221C007F49494941007F09094C
:102920000901003E4149497A007F0808087F0000FC
:10293000417F4100002040413F01007F08142241B7
:10294000007F40404040007F020C027F007F04086F
:10295000107F003E4141413E007F09090906003ECB
:102960004151215E007F09192946004649494931F4
:102970000001017F0101003F4040403F001F204017
:10298000201F003F4038403F0063140814630007D5
:102990000870080700615149454300007F4141002C
:1029A00000552A552A55000041417F0000040201CC
:1029B00002040040404040400000010204000020AA
:1029C00054545478007F48444438003844444420E8
:1029D00000384444487F00385454541800087E0995
:1029E00001020018A4A4A47C007F0804047800005D
:1029F000447D4000004080847D00007F102844001A
:102A00000000417F4000007C04180478007C08042A
:102A1000047800384444443800FC24242418001866
:102A2000242418FC007C0804040800485454542052
:102A300000043F444020003C4040207C001C2040DB
:102A4000201C003C4030403C004428102844001C1E
:102A5000A0A0A07C004464544C4414141414141416
:102A60000000000000000000000000000000000066
:102A7000000000F8000000000000003330000000FB
:102A800000100C06100C0600000000000000000002
:102A900040C07840C0784000043F04043F04040074
:102AA0000000000000000000000000000000000026
:102AB000F008F000E018000000211C031E211E0099
:102AC00000F00888700000001E212324192721101F
:102AD00010160E00000000000000000000000000C2
:102AE000000000E018040200000000071820400069
:102AF00000020418E0000000004020180700000059
:102B0000404080F0804040000202010F01020200BC
:102B1000000000F0000000000101011F01010100A0
:102B2000000000000000000080B070000000000005
:102B3000000000000000000000010101010101018E
:102B40000000000000000000003030000000000025
:102B500000000000806018040060180601000000FA
:102B600000E010080810E000000F102020100F00F7
:102B7000001010F8000000000020203F202000007E
:102B800000700808088870000030282422213000D6
:102B900000300888884830000018202020110E00DE
:102BA0000000C02010F8000000070424243F240087
:102BB00000F80888880808000019212020110E005C
:102BC00000E0108888180000000F112020110E006E
:102BD00000380808C83808000000003F0000000066
:102BE0000070880808887000001C222121221C0027
:102BF00000E010080810E0000000312222110F0050
:102C0000000000C0C00000000000003030000000E4
:102C10000000008000000000000080600000000054
:102C2000000080402010080000010204081020006D
:102C300040404040404040000404040404040400B8
:102C4000000810204080000000201008040201004D
:102C5000007048080808F00000000030360100004D
:102C6000C030C828E810E0000718272423140B0000
:102C70000000C038E0000000203C2302022738207A
:102C800008F8888888700000203F202020110E005E
:102C9000C030080808083800071820202010080055
:102CA00008F808080810E000203F202020100F003E
:102CB00008F88888E8081000203F2020232018000A
:102CC00008F88888E8081000203F20000300000072
:102CD000C03008080838000007182020221E020013
:102CE00008F808000008F808203F210101213F20D2
:102CF000000808F8080800000020203F20200000FD
:102D000000000808F8080800C08080807F000000EC
:102D100008F888C028180800203F20012638200025
:102D200008F8080000000000203F2020202030008C
:102D300008F8F800F8F80800203F003F003F2000A6
:102D400008F830C00008F808203F200007183F00AE
:102D5000E01008080810E0000F10202020100F00DD
:102D600008F808080808F000203F210101010000D0
:102D7000E01008080810E0000F18242438504F0015
:102D800008F8888888887000203F2000030C3020D5
:102D900000708808080838000038202121221C0013
:102DA000180808F8080818000000203F200000005C
:102DB00008F808000008F808001F202020201F0045
:102DC0000878880000C83808000007380E010000A5
:102DD000F80800F80008F800033C0700073C03006F
:102DE000081868808068180820302C03032C3020D5
:102DF0000838C800C83808000000203F2000000044
:102E000010080808C838080020382621202018009B
:102E1000000000FE020202000000007F404040006F
:102E2000000C30C000000000000000010638C000A7
:102E300000020202FE000000004040407F0000004F
:102E40000000040202020400000000000000000074
:102E50000000000000000000808080808080808072
:102E6000000202040000000000000000000000005A
:102E700000008080808000000019242222223F2050
:102E800008F8008080000000003F112020110E0093
:102E90000000008080800000000E11202020110022
:102EA000000000808088F800000E112020103F20D4
:102EB0000000808080800000001F22222222130058
:102EC000008080F0888888180020203F20200000A3
:102ED0000000808080808000006B94949493600058
:102EE00008F8008080800000203F210000203F2063
:102EF00000809898000000000020203F2020000063
:102F0000000000809898000000C08080807F000052
:102F100008F8000080808000203F24022D3020002F
:102F2000000808F8000000000020203F20200000DA
:102F30008080808080808000203F20003F20003FF4
:102F40008080008080800000203F210000203F2002
:102F50000000808080800000001F202020201F00B3
:102F6000808000808000000080FFA12020110E00E2
:102F70000000008080808000000E112020A0FF80D3
:102F8000808080008080800020203F212000010080
:102F900000008080808080000033242424241900D5
:102FA000008080E0808000000000001F20200000E2
:102FB0008080000000808000001F202020103F2023
:102FC000808080000080808000010E3008060100B3
:102FD00080800080008080800F300C030C300F0058
:102FE00000808000808080000020312E0E31200083
:102FF000808080000080808080818E7018060100B3
:1030000000808080808080000021302C22213000D0
:1030100000000000807C020200000000003F4040F1
:1030200000000000FF00000000000000FF000000A2
:103030000002027C800000000040403F00000000D1
:10304000000601010202040400000000000000006C
:10305000703000080000002050190000B205000880
:10306000443900085019002038050000241D0008CC
:10307000100F008C1010202019041202C002110041
:103080000120104018205C62225C40241090210234
:1030900004041303150210191116400B08D4321240
:1030A0008A890905060401100708080810F01805A8
:1030B0000005212020C0000110133040B8C444B9DD
:1030C000804820204B0CF809080888781510072044
:1030D00028A8A8A8F8041328206211531006C8488D
:1030E0002818089DA005E0F0F0E03E3007C03C83C2
:1030F0008080990B111833020C151380030B000408
:1031000022020EF17F20040040808611671017A173
:10311000A090908B848A9190A0A000A0282F2A2AAA
:103120003F2AAA2FA81920078080A020BF80011164
:103130000C50049B9B800B2513300C3F40870816D6
:10314000102C2121229C202201AC000A230007041C
:10315000060080601E018010070020854141028129
:103160004024202EAAEABF2AAF6A2A2E2000E01BA4
:10317000807EEAAAEA3FC2239A0000FF24FF00FFF4
:10318000080F08088FF45004FC04025B100EC020E6
:103190001088452712022005050503014743002E2C
:1031A0000007240C0A091060807F10172403000216
:1031B0000078800020028242424281010102020026
:1031C000400162100901C022212041830020100526
:1031D00023000302013409C3202020408202032F70
:1031E000100700003847F004181007040505060210
:1031F0000A01100404041401661BF7032301FEFFF7
:10320000101217100904240800110100030404021D
:1032100000010A5221C7114112028613200592258E
:103220009FF111401000001F38302830201000207E
:103230000C103020133595000AFF010204182414E5
:10324000241F000105238208091801010900000953
:103250000104B0180B109453321E325210007E231A
:103260000E137E470343FF49010212FF4000101175
:1032700008CC4A49484ACC18007F88888482E03EBE
:10328000000914121252927F00007E2000101210CA
:103290000CC4544C64D54644444C54C4140C7F00B4
:1032A0000A12404462554955434040811809100CA8
:1032B0004424140405C6A20313244440133F01010F
:1032C000080612FF0101112136F010101010FF90B6
:1032D00020984828090E2848A818E02408024281AE
:1032E0007F0040401D15210E10406404100B504E0D
:1032F0004848FF48484840F8EC0D1286040C0D126F
:103300003E0202FF12221E000F40807FA603040B24
:103310001322322AA6A26221110981A60C0E1142A3
:1033200022130B42827E02020A1223466304000F1C
:103330001030AC63300088C8A8998E88A8C8885E11
:103340002C09672212128040300FD20407164071F8
:10335000000409148888E98E8888A89800000A1457
:103360000080844B281028478080000C141000FE39
:10337000485040FF4050480080000B13007F4442FB
:10338000417F41424440C0000C1420182024A42452
:103390003FA424A460C0080B1012888A4C29180F7F
:1033A0001828C8600C0F108060F80700042424253A
:1033B0002624242404020345963AF9C20A13F9E0AC
:1033C0000C0A13FC54545655545454FC44060C0F28
:1033D00011300003394141455941417300083065BE
:1033E00006100842445840407F40FE0E13C6850632
:1033F0007244010912C01C080808E8292E28E807B1
:1034000007130C0B060D1200031C04094989400325
:1034100009153F040F10048484FC84840004048490
:10342000E41C8404002C072060201F101057061590
:10343000070B110106001EFF25080C0A10A4ACB5ED
:10344000A6B4ACA4202020040C0E11301F088880E4
:103450004F3A0A0A7A8A8F80C003200860028C00E3
:1034600000FE92010D1216061C0604047E01405C4B
:10347000042E7E400307127E407F15B816FCBE0660
:1034800013FCC07C0D40308F80844C55252525557C
:103490004C9C070D2B04050F1A3636A40631C0418B
:1034A000BF0117C01404444850E00005907F504805
:1034B00044C00C073900000C12120C23061C040235
:1034C00002C2000823FE82010A1102DF39DC310446
:1034D00021010911C0180688C8380C0BC72D9E0899
:1034E0000910C0297913404101227F0501124018BB
:1034F0000589EA1888C01EFC610A0D11820321406B
:103500000C0B120186402018074080403FC0050C7C
:103510000D10F01F10F00040E05847405060970A2F
:103520001807402215081621A21DDF06061242E1E7
:103530003D40042D66060C04102010083F044D4049
:10354000041D3F03363F010A1178201D79031D80B9
:10355000060C06113CA42424E480033D79030809E9
:10356000128281462810294641C01DBE030C0A1153
:10357000FC10E82427E424342C3F070C1012003FF1
:1035800010103F8043320E033E42424370A0074575
:10359000BC0F168282950956FFBC0D139E060C0EB9
:1035A00011840414640F048444B4242FA4644004DC
:1035B0001C05080BF804BE09000711FA4A49494ADC
:1035C000FAE031C01F00443F05127F04021444C0DA
:1035D0001DE90A0C06111515155595C1043D5B072B
:1035E000159A3106091160178080990409160C0399
:1035F00000030C102040400139801D7F042DBC03C6
:103600001921080412222222201C077F21111509EA
:10361000B141070C0413024282C007213941010560
:10362000148163FF42010D5200060D3F40040D7DE1
:10363000C006080E111010D0FF9014E4AFA4A4A48B
:10364000AFE45F1F040340030C0A10894B2A1A0ED3
:103650001A2A4B8840032004101090013DC7060C25
:103660000411111610840D1B6020034A10410E51E5
:10367000F880051DFF051D010615FF0F1323225FAE
:10368000051D5E0D193A31080E100261051C04403B
:1036900044C421083240C01DC8040D1060070C0A44
:1036A000143C131014B840300E0100051DDC080056
:1036B0000916F8888C8A89888888DD0E19FF7F08AA
:1036C000013F801D800B115B3F45C6E6080D11C010
:1036D0000B1DBF031F1E203D073D06090D114006AF
:1036E0002DC0031DC10311FD35030D13C0032DC1F2
:1036F000030B940106401D1B0C1C06CC0040A09E31
:1037000080050F119EA040092D4A100C08149088C6
:1037100040432C1028000610081715D55557557D25
:10372000040C0414D5151780074255010E127F8032
:1037300007097F0005FD8039B72E901E132DC108A3
:103740000D1040072C050444827FD3110D16BE05D1
:103750002E80B9074DBF071D82090D11E0064DBC33
:103760000D0E15005D0E2DA20B19B70C071110F0F0
:1037700010101413FE040811110081814141211120
:103780000D030D1121414181813E1C08012220229F
:1037900022A2FAC6060E12022009000918FF00082C
:1037A000040211201FC32D010B3E2400050D114002
:1037B0000C2DBA094D7D090D147F09100910101246
:1037C000D2525F52F2040F12D21200040C0C1300FA
:1037D000009F5232121F1232529F63130C0E1010B0
:1037E0002CE7242400088848390E08C8800A1DFCEC
:1037F0000F1DC2070C091000217129252321284023
:10380000090C0E1202E222223E8080FF80A09088E6
:103810008660082C054382423E44091F2106F814A5
:103820000D11C00A1C08494EF84C4B08123C080EFA
:10383000121240081C058242320F601319063E0422
:103840004A0F0D1162085E7E1F080D147E11653D42
:103850000515401D81042C074848C809FAC46A05AB
:103860000D12FF061DD70A1F06417B072F0304B860
:10387000150D13400F2E47E4073DA2050E1340001F
:103880000B021940200D3E401021801F8780040646
:103890000C0511FE828382200B3D800B6E40820C52
:1038A000091440080813565A5253525A56401DC024
:1038B0000F1C0A7785858DB5858585E7AD0E0D11C1
:1038C000600E000D10EF242480E49C105454FF542B
:1038D0007C40293F0C0C90512618274445455F45F4
:1038E000454400111DFF0711010C07110808FF08CE
:1038F000090A00030C0F1280601F0010201F804077
:10390000211618264123064004C05E52010E125EA5
:10391000D5171C0580808F40820B2E0E4A18061585
:103920004FC00D7B80110D3E000B7FA24A751060C9
:103930000901020304060708090C61103C04020493
:0439400006990B00D9
:0400000508000131BD
:00000001FF
